:100000000C9434000C9451000C9451000C94510049
:100010000C9451000C9451000C9451000C9451001C
:100020000C9451000C9451000C9451000C9451000C
:100030000C9451000C9451000C9451000C945100FC
:100040000C9453000C9451000C9451000C945100EA
:100050000C9451000C9451000C9451000C945100DC
:100060000C9451000C94510011241FBECFEFD4E02A
:10007000DEBFCDBF11E0A0E0B1E0ECE4F3E002C0F0
:1000800005900D92AC30B107D9F711E0ACE0B1E0CA
:1000900001C01D92A331B107E1F70E9486000C94C4
:1000A000A4010C9400001F920F920FB60F9211241E
:1000B0008F939F9385E086BD809100018F5F809331
:1000C000000191E090930D01883010F01092000132
:1000D0009F918F910F900FBE0F901F901895E1E6A2
:1000E000F0E080E88083108214BC83E085BD81EC61
:1000F00086BD109269001DBA1092680081E080935D
:100100006E0010926F001092700008958F929F926F
:10011000AF92BF92CF92DF92EF92FF920F931F9315
:10012000CF93DF930E946F007894409100018091FB
:100130000D0120910C01E0900E0110911201F09040
:100140000F01D09011010091100152E0A52E5FEF38
:1001500034E0B32E98E0C92EB5E59B2E8824839415
:100160006D2D70E06F5F7E4FCE2DD0E0AF2DB0E0F3
:10017000E02FF0E0882309F4E6C0433009F466C0BC
:10018000443058F44130C1F1AF5FBE4FEF5FFE4FD6
:10019000CF5FDE4F4230B8F50DC0453009F486C060
:1001A000453008F45AC0463009F487C0473009F09A
:1001B000B2C0A9C08C9190E083709070880F991F95
:1001C000880F991F208130E023703070F4E0220FF7
:1001D000331FFA95E1F7822B28812370822BFB01D4
:1001E00020812295220F220F207C282B1AB81BB8C1
:1001F00028B957B98AB891C04BB9822F809588B970
:1002000057B94AB98AC0808190E08C709070880F8D
:10021000991F880F991F2C912C70282B888190E0B2
:100220008C7090709595879595958795282BFB01F7
:10023000808190E08C709070B4E0880F991FBA951F
:10024000E1F7282B1AB81BB828B904C0ABB8822F25
:10025000809588B957B9AAB860C0AF5FBE4F8C917E
:1002600090E0807390709595879595958795EF5F51
:10027000FE4F20812073282BCF5FDE4F888190E0D6
:1002800080739070E4E095958795EA95E1F7282BC7
:10029000FB01808190E080739070880F991F880F18
:1002A000991F282B1AB81BB828B904C0BBB8822FD5
:1002B000809588B957B9BAB830C0EF5FFE4F8081DA
:1002C00090E0807C90709595879595958795AF5F28
:1002D000BE4F2C9130E0207C307094E0359527950E
:1002E0009A95E1F7822BCF5FDE4F288122952695E4
:1002F00026952370282BFB018081807C282B1AB83F
:100300001BB828B905C0CBB898B8822F809588B99A
:1003100057B9CAB802C017B81AB81F5F123398F09D
:10032000E394F9E0FE1510F4F394EE2489E08F15C0
:1003300010F40F5FFF2410E080E00A3008F414CFBF
:0C034000D39400E00DCFFFCFF894FFCF66
:0C034C00087722DB972E6D7C23FF2F002A
:00000001FF
