:100000000C9434000C9451000C9451000C94510049
:100010000C9451000C9451000C9451000C9451001C
:100020000C9451000C9451000C9451000C9451000C
:100030000C9451000C9451000C9451000C945300FA
:100040000C94BA000C9451000C9451000C94510083
:100050000C9451000C9451000C9451000C945100DC
:100060000C9451000C94510011241FBECFEFD4E02A
:10007000DEBFCDBF11E0A0E0B1E0EAECF3E002C0EA
:1000800005900D92A831B107D9F711E0A8E1B1E0D0
:1000900001C01D92A232B107E1F70E94DB000C946F
:1000A000E3010C940000A998809118018F5F809360
:1000B0001801815030911901882339F5E32FF0E0C0
:1000C000EE0FFF1FE65EFE4F908181819BB998B1D4
:1000D0008F70892B88B985B1807F85B984B1807F85
:1000E00084B9332319F42898209A44C0313019F484
:1000F0002998219A3FC0323019F42A98229A3AC09E
:100100003330C1F52B98239A35C010921801E32F94
:10011000F0E0EE0FFF1FE65EFE4F80819181282FF9
:1001200020952BB928B180959095892F8F70822BBF
:1001300088B985B1807F85B984B1807F84B9332344
:1001400019F4289A209A0EC0313019F4299A219A6C
:1001500009C0323019F42A9A229A04C0333011F4BB
:100160002B9A239A832F8F5F80931901843010F08C
:1001700010921901A89885B1807F85B984B18F60EC
:1001800084B988B1807F88B98BB11BB884B18F6086
:1001900084B987B18FEF87B99AB18AB98AE484BDEF
:1001A0008FE387BDEEE6F0E08081836080838FB7C8
:1001B00080688FBF089580E49CE90197F1F70E9461
:1001C000C60080E091E00E94EF0080911A019091BA
:1001D0001B01806890931B0180931A01FFCF0F933E
:1001E0001F93CF93DF938C0110921B0110921A0181
:1001F00010921D0110921C0110921F0110921E01FD
:10020000109221011092200170E040E050E0C1E026
:10021000D0E0A2E0B0E0F801E40FF51FE0818E2FFE
:1002200080538A3020F4F0E0E952FF4F0FC08E2F48
:100230008154863020F4F0E0E053FF4F07C08E2F4A
:100240008156863020F4F0E0E055FF4F7081672F33
:1002500070FF14C0CA01880F991F9E0102C0220FAF
:10026000331F8A95E2F7C90120911A0130911B01D1
:10027000822B932B90931B0180931A0164FF14C06F
:10028000CA01880F991F9D0102C0220F331F8A9552
:10029000E2F7C90120911A0130911B01822B932BA7
:1002A00090931B0180931A0161FF14C0CA01880F4B
:1002B000991F9E0102C0220F331F8A95E2F7C901E0
:1002C00020911C0130911D01822B932B90931D01D5
:1002D00080931C0165FF14C0CA01880F991F9D01FE
:1002E00002C0220F331F8A95E2F7C90120911C0139
:1002F00030911D01822B932B90931D0180931C0143
:1003000062FF14C0CA01880F991F9E0102C0220F0C
:10031000331F8A95E2F7C90120911E0130911F0118
:10032000822B932B90931F0180931E0166FF14C0B4
:10033000CA01880F991F9D0102C0220F331F8A95A1
:10034000E2F7C90120911E0130911F01822B932BEE
:1003500090931F0180931E0163FF14C0CA01880F90
:10036000991F9E0102C0220F331F8A95E2F7C9012F
:100370002091200130912101822B932B9093210118
:100380008093200177FF14C0CA01880F991F9D0137
:1003900002C0220F331F8A95E2F7C9012091200184
:1003A00030912101822B932B909321018093200186
:1003B0004F5F5F4F4630510509F02DCFDF91CF9150
:0A03C0001F910F910895F894FFCFEC
:1003CA0030313233343500EB60C7E56CADAFE0EF66
:0803DA00EDEE2F8B678F8E0002
:00000001FF
