:100000000C9434000C9451000C9451000C94510049
:100010000C9451000C9451000C9451000C9451001C
:100020000C9451000C9451000C9451000C9451000C
:100030000C9451000C9451000C9453000C945100FA
:100040000C94D0000C9451000C9451000C9451006D
:100050000C9451000C9451000C9451000C945100DC
:100060000C9451000C94510011241FBECFEFD4E02A
:10007000DEBFCDBF11E0A0E0B1E0E2E9F5E002C0F3
:1000800005900D92A433B107D9F711E0A4E3B1E0D4
:1000900001C01D92AE33B107E1F70E9400010C943C
:1000A000C7020C9400001F920F920FB60F921124FA
:1000B0002F933F938F939F93EF93FF93A9988091F2
:1000C00034018F5F80933401815030913501882352
:1000D00039F5E32FF0E0EE0FFF1FEA5CFE4F908151
:1000E00081819BB995B18F70892B85B988B1807F4B
:1000F00088B987B1807F87B9332319F44098389A3B
:1001000044C0313019F44198399A3FC0323019F463
:1001100042983A9A3AC03330C1F543983B9A35C079
:1001200010923401E32FF0E0EE0FFF1FEA5CFE4F68
:1001300080819181282F20952BB925B180959095AC
:10014000892F8F70822B85B988B1807F88B987B15C
:10015000807F87B9332319F4409A389A0EC0313022
:1001600019F4419A399A09C0323019F4429A3A9AEC
:1001700004C0333011F4439A3B9A832F8F5F8093EE
:100180003501843010F010923501FF91EF919F916D
:100190008F913F912F910F900FBE0F901F90189548
:1001A0001F920F920FB60F9211248F93A89888B1C7
:1001B000807F88B987B18F6087B985B1807F85B925
:1001C0008BB11BB88F910F900FBE0F901F90189599
:1001D00084B18F6084B987B18F6087B98AB18FEF9E
:1001E0008AB983E084BD82E085BD8FE387BDEEE6FA
:1001F000F0E08081836080838FB780688FBF08952F
:10020000CF92DF92EF92FF920F931F93DF93CF93E2
:1002100000D000D00F92CDB7DEB788EC90E020E997
:1002200031E0F9013197F1F70197D9F70E94E80021
:1002300000E010E06E010894C11CD11C20E9E22E00
:1002400021E0F22E12C0C801B6014AE050E00E943F
:100250008202C6010E948E0180E197E2F701319788
:10026000F1F70197D9F7095A1B4F87E200311807B8
:1002700054F380E091E00E948E0180E197E2F70163
:100280003197F1F70197D9F786E091E00E948E014E
:1002900080E197E2F7013197F1F70197D9F78CE008
:1002A00091E00E948E0180E197E2F7013197F1F72A
:1002B0000197D9F782E191E00E948E0180E197E2F7
:1002C000F7013197F1F70197D9F788E191E00E94A2
:1002D0008E0180E197E2F7013197F1F70197D9F7A5
:1002E0008EE191E00E948E0180E197E2F701319763
:1002F000F1F70197D9F78091360190913701906815
:10030000909337018093360180E197E2F7013197AE
:10031000F1F70197D9F700E010E0A7CF0F931F93F3
:10032000CF93DF938C011092370110923601109217
:1003300039011092380110923B0110923A0110924B
:100340003D0110923C0170E040E050E0C1E0D0E09F
:10035000A2E0B0E0F801E40FF51FE0818E2F80539A
:100360008A3020F4F0E0EC50FF4F0FC08E2F815404
:10037000863020F4F0E0E351FF4F07C08E2F815606
:10038000863020F4F0E0E353FF4F7081672F70FF59
:1003900014C0CA01880F991F9E0102C0220F331F8B
:1003A0008A95E2F7C9012091360130913701822BFD
:1003B000932B909337018093360164FF14C0CA01D8
:1003C000880F991F9D0102C0220F331F8A95E2F703
:1003D000C9012091360130913701822B932B9093E4
:1003E00037018093360161FF14C0CA01880F991F3D
:1003F0009E0102C0220F331F8A95E2F7C9012091A6
:10040000380130913901822B932B909339018093DD
:10041000380165FF14C0CA01880F991F9D0102C0F1
:10042000220F331F8A95E2F7C901209138013091DC
:100430003901822B932B909339018093380162FF0D
:1004400014C0CA01880F991F9E0102C0220F331FDA
:100450008A95E2F7C90120913A0130913B01822B44
:10046000932B90933B0180933A0166FF14C0CA011D
:10047000880F991F9D0102C0220F331F8A95E2F752
:10048000C90120913A0130913B01822B932B90932B
:100490003B0180933A0163FF14C0CA01880F991F82
:1004A0009E0102C0220F331F8A95E2F7C9012091F5
:1004B0003C0130913D01822B932B90933D01809321
:1004C0003C0177FF14C0CA01880F991F9D0102C02B
:1004D000220F331F8A95E2F7C90120913C01309128
:1004E0003D01822B932B90933D0180933C014F5F04
:1004F0005F4F4630510509F02DCFDF91CF911F910D
:100500000F910895FB019F01E8944230C4F04532F9
:10051000B4F44A3029F497FB1EF4909581959F4FCF
:10052000642F77270E94B302805D8A330CF0895DC7
:100530008193CB010097A1F716F45DE251931082ED
:10054000C9010C94A302DC01FC01672F7191772390
:10055000E1F7329704C07C916D9370836291AE177E
:10056000BF07C8F30895AA1BBB1B51E107C0AA1F10
:10057000BB1FA617B70710F0A61BB70B881F991F44
:100580005A95A9F780959095BC01CD010895F894EE
:02059000FFCF9B
:10059200414141414100626262626200434343431E
:1005A200430064646464640045454545450046462D
:1005B20046464600EB60C7E56CADAFE0EFEDEE2FCF
:0405C2008B678F8E26
:00000001FF
