:100000000C9434000C9451000C9451000C94510049
:100010000C9451000C9451000C9451000C9451001C
:100020000C9451000C9451000C9451000C9451000C
:100030000C9451000C9451000C9453000C945100FA
:100040000C94C4000C9451000C9451000C94510079
:100050000C9451000C9451000C9451000C945100DC
:100060000C9451000C94510011241FBECFEFD4E02A
:10007000DEBFCDBF11E0A0E0B1E0EAE9F6E002C0EA
:1000800005900D92AE31B107D9F711E0AEE1B1E0C4
:1000900001C01D92A832B107E1F70E94F5000C944F
:1000A0004B030C9400001F920F920FB60F92112475
:1000B0002F933F938F939F93EF93FF93A8988091F3
:1000C0001E018F5F80931E01815030911F01882394
:1000D00009F5E32FF0E0EE0FFF1FE05EFE4F908189
:1000E00081819BB995B18F70892B85B9332319F420
:1000F0004098389A3EC0313019F44198399A39C045
:10010000323019F442983A9A34C0333091F543981A
:100110003B9A2FC010921E01E32FF0E0EE0FFF1F5D
:10012000E05EFE4F80819181282F20952BB925B16B
:1001300080959095892F8F70822B85B9332319F480
:10014000409A389A0EC0313019F4419A399A09C050
:10015000323019F4429A3A9A04C0333011F4439A77
:100160003B9A832F8F5F80931F01843010F0109291
:100170001F01FF91EF919F918F913F912F910F90D0
:100180000FBE0F901F9018951F920F920FB60F92EF
:1001900011248F9385B385BB88B1807F88B987B1DF
:1001A0008F6087B985B1807F85B98BB11BB88F917E
:1001B0000F900FBE0F901F90189587B18F6087B971
:1001C0008AB18FEF8AB984B18F6084B983E084BD2E
:1001D00082E085BD8FE387BDEEE6F0E0808183603D
:1001E00080838FB780688FBF08958F929F92AF9260
:1001F000BF92CF92DF92EF92FF920F931F93DF9304
:10020000CF93CDB7DEB72A970FB6F894DEBF0FBEF7
:10021000CDBF88EC90E020E931E0F9013197F1F7AA
:100220000197D9F70E94DD00EE24FF24870170E2D8
:10023000C72E4E010894811C911C60E9A62E61E036
:10024000B62E45C080E1E81687E2F80680E0080790
:1002500080E0180708F05CC088EEE81683E0F80636
:1002600080E0080780E0180718F054E0D52E14C08D
:1002700084E6E816F1040105110518F043E0D42ED8
:100280000BC08AE0E816F1040105110518F4DD241D
:10029000D39402C032E0D32EC982CA82CB82CC82F0
:1002A000CD82C701B4014AE050E00E941103C401AD
:1002B0006D2D0E94980184EF91E0F5013197F1F7DF
:1002C0000197D9F70894E11CF11C011D111D80E074
:1002D000E81680E0F80681E0080780E0180708F4D7
:1002E000B1CF80E395E7F5013197F1F70197D9F7A1
:1002F00080E091E065E00E94980180E197E2F501DD
:100300003197F1F70197D9F7EE24FF248701DFCF6A
:1003100025E0D22EC1CF61E00E94980180E197E2F2
:1003200020E931E0F9013197F1F70197D9F7089504
:10033000DF92EF92FF920F931F93CF93DF93D62E0E
:10034000109221011092200110922301109222019B
:10035000109225011092240110922701109226017B
:10036000EC0150E0A0E0B0E070E06150704011E0BE
:10037000E12EF12C02E010E00CC1E8818E2F8053B9
:100380008A3020F4F0E0EA52FF4F0FC08E2F8154E4
:10039000863020F4F0E0E153FF4F07C08E2F8156E6
:1003A000863028F4F0E0E155FF4F50812FC0EE3247
:1003B00011F451E02BC0E03211F450E027C0EC34CE
:1003C00011F1EC3601F1EF3611F452E71FC0EF34B2
:1003D00011F45EEB1BC0E035C1F0E037B1F0E8345A
:1003E00011F456EE13C0E83611F452EE0FC0EE349D
:1003F00011F45EEA0BC0EE3611F452E607C0EF3F8F
:1004000029F45FEF03C050EB01C05CEE452F50FFB5
:1004100016C0CB018A1B9B0B880F991F970102C046
:10042000220F331F8A95E2F7C901209120013091F4
:100430002101822B932B909321018093200144FF73
:1004400016C0CB018A1B9B0B880F991F980102C015
:10045000220F331F8A95E2F7C901209120013091C4
:100460002101822B932B909321018093200141FF46
:1004700016C0CB018A1B9B0B880F991F970102C0E6
:10048000220F331F8A95E2F7C90120912201309192
:100490002301822B932B909323018093220145FF0C
:1004A00016C0CB018A1B9B0B880F991F980102C0B5
:1004B000220F331F8A95E2F7C90120912201309162
:1004C0002301822B932B909323018093220142FFDF
:1004D00016C0CB018A1B9B0B880F991F970102C086
:1004E000220F331F8A95E2F7C90120912401309130
:1004F0002501822B932B909325018093240146FFA5
:1005000016C0CB018A1B9B0B880F991F980102C054
:10051000220F331F8A95E2F7C901209124013091FF
:100520002501822B932B909325018093240143FF77
:1005300016C0CB018A1B9B0B880F991F970102C025
:10054000220F331F8A95E2F7C901209126013091CD
:100550002701822B932B909327018093260157FF2D
:1005600016C0CB018A1B9B0B880F991F980102C0F4
:10057000220F331F8A95E2F7C9012091260130919D
:100580002701822B932B90932701809326011196AC
:100590002196AD1508F4F1CEDF91CF911F910F9107
:1005A000FF90EF90DF900895F02DAC019B0190E05B
:1005B00080E070E060E0A92F0E94F8029A2FA82F37
:1005C0000E94F8028A2FA72F0E94F8027A2FA62FE6
:1005D0000E94F8026A2F8894221F331F441F551F60
:1005E000661F771F881F991FF395FF3120F3089529
:1005F000BA2FBF70B53010F0B3E0AB0FBA2FB07F99
:10060000B03510F0B0E3AB0F08954FEF43B94FEFA3
:100610005FEF64E14A95F1F75A95E1F76A95D1F7F2
:100620000895FB019F01423074F0453264F4642F59
:1006300077270E943703805D8A330CF0895D8193B0
:10064000CB010097A1F71082C9010C942703DC01AC
:10065000FC01672F71917723E1F7329704C07C91F9
:100660006D9370836291AE17BF07C8F30895AA1BFC
:10067000BB1B51E107C0AA1FBB1FA617B70710F08D
:10068000A61BB70B881F991F5A95A9F780959095BF
:0A069000BC01CD010895F894FFCFDE
:10069A0020444F4E4500BE067C5EC6DAFA8EFEDE68
:0E06AA00EEF2B876F8E801B072BEECAE620077
:00000001FF
