:200000000C9463000C948B000C948B000C948B000C948B000C948B000C948B000C948B00B0
:200020000C948B000C948B000C948B000C948B000C948B000C948B000C948B000C948B0068
:200040000C94F8030C948B000C9472050C94C0050C948B000C948B000C948B000C948B00B2
:200060000C948B000C948B0000000000240027002A0000000000250028002B00000000003D
:20008000230026002900040404040404040402020202020203030303030301020408102071
:2000A0004080010204081020010204081020000000070002010000030406000000000000EB
:2000C00000008D002C0711241FBECFEFD8E0DEBFCDBF11E0A0E0B1E0E2E5F2E102C00590BC
:2000E0000D92AA38B107D9F712E0AAE8B1E001C01D92A235B107E1F710E0C6ECD0E004C0F5
:200100002297FE010E942309C23CD107C9F70E9482070C9427090C940000CF92EF920F93A4
:200120008AE891E068E049E024E005E056E0E52E37E0C32E0E94BF030F91EF90CF900895B2
:20014000CF92DF92EF92FF920F931F9300E312E0C80140E051EE60E070E00E94FB0570E0E8
:20016000C72E71E0D72EC801B6010E94B208C80161E071E00E94AF086AE8E62E61E0F62ED9
:20018000C70160E142E020E00E940903C7016CE071E00E94AF08C80163E171E00E94B2080E
:2001A000C801B6010E94B2088091670161E00E94DE041F910F91FF90EF90DF90CF9008955C
:2001C000AF92BF92CF92DF92EF92FF920F931F9380E392E061E271E00E94AF0881EC809313
:2001E0007C0064E170E080E090E00E94400480917A00806480937A0080917A0086FDFCCF63
:200200008091780090E0A0E0B0E020917900B22EAA24CC24B7FCC094DC2CA82AB92ACA2A55
:20022000DB2AC601B5012AEB34E040E050E00E94C50820E034E040E050E00E9406097901C5
:200240008A018AE891E060E041E00E94D2028AE891E060E371E00E94AF088AE891E0B601EF
:20026000A5012AE030E00E945B088AE891E068E041E00E94D2028BEE9FEFAFEFBFEFE80EAE
:20028000F91E0A1F1B1FC801B70128EE33E040E050E00E94C50829E830E040E050E00E9468
:2002A00006098AE891E0BA01A9012AE030E00E945B088AE891E064E371E00E94AF088AE882
:2002C00091E06FE040E00E94D202B501C6011F910F91FF90EF90DF90CF90BF90AF900895F4
:2002E000EF92FF920F931F938EE480937C0062E070E080E090E00E94400480917A008064E0
:2003000080937A0080917A0086FDFCCF8091780090E0A0E0B0E060917900362F20E0442734
:2003200037FD4095542F282B392B4A2B5B2B60E070E381E190E00E940609122F032FF42ED4
:20034000E52E80E392E069E371E00E94AF0864E670E080E090E00E9440048AE891E00E94EA
:2003600001038AE891E060E040E00E94D2028AE891E06DE571E00E94AF088AE891E0412F8E
:20038000502F6F2D7E2D2AE030E00E945B088AE891E063E671E00E94AF088AE891E06FE070
:2003A00040E00E94D2028AE891E00E94BE02612F702F8F2D9E2D1F910F91FF90EF900895B1
:2003C0000F931F930E947001AB01BC0100E312E0C8012AE030E00E945B08C80163E671E02D
:2003E0000E94B2080E94E000AB01BC01C8012AE030E00E949B081F910F9108950F931F934D
:200400008C01FC01868160E00E941D0581E090E00E949904F801868161E00E941D0581E0D1
:2004200090E00E949904F801868160E00E941D0584E690E00E9499041F910F910895CF92A2
:20044000DF92EF92FF920F931F93CF93DF93D82EC92E282F392FC9018C01C0E0D0E0E62E7A
:20046000FF24F801878161E00E94DE04B7010C2E02C0759567950A94E2F76170F801878190
:200480000E941D0521960F5F1F4FC830D10549F78D2D9C2D0E94FE01DF91CF911F910F91B3
:2004A000FF90EF90DF90CF900895CF92DF92EF92FF920F931F93CF93DF93D82EC92E282F63
:2004C000392FC9018C01C0E0D0E0E62EFF24F801878161E00E94DE04B7010C2E02C0759552
:2004E00067950A94E2F76170F80187810E941D0521960F5F1F4FC430D10549F78D2D9C2DD3
:200500000E94FE01DF91CF911F910F91FF90EF90DF90CF9008951F93CF93DF93EC01162FE9
:200520008C81642F0E941D058D818F3F19F060E00E941D058F8584FF05C0CE01612F0E9411
:200540001F020EC0612F70E084E0759567958A95E1F7CE010E945502CE01612F0E9455024B
:20056000DF91CF911F91089541E00E948B0281E090E0089540E00E948B020895FC016089CE
:20058000862F8160808B6960CF010E94BA020895FC016089862F8460808B6C60CF010E945E
:2005A000BA020895DF93CF93CDB7DEB728970FB6F894DEBF0FBECDBF9C01FE013196A1E704
:2005C000B1E088E00D9001928150E1F7F9018389481710F0482F4150E42FF0E0EE0FFF1FDE
:2005E000EC0FFD1F8181680F6068C9010E94BA0228960FB6F894DEBF0FBECDBFCF91DF91A6
:20060000089561E00E94BA0280ED97E00E9499040895CF93DF93EC01423018F08F858860A7
:200620008F874B8B1C8A222329F0413019F48F8584608F8780E593EC0E9499048C8160E0CE
:200640000E941D058E8160E00E941D058D818F3F19F060E00E941D056F8564FD1DC0CE01D9
:2006600063E00E94550284E991E10E949904CE0163E00E94550284E991E10E949904CE0128
:2006800063E00E94550286E990E00E949904CE0162E00E94550216C06062CE010E94BA0231
:2006A00084E991E10E9499046F856062CE010E94BA0286E990E00E9499046F856062CE0196
:2006C0000E94BA026F856062CE010E94BA0284E0888BCE010E94C802CE010E94010382E050
:2006E000898BCE0166E00E94BA02DF91CF9108956F927F928F92AF92CF92EF920F931F935C
:20070000DF93CF93CDB7DEB73C01162F842FF301448325830683E782C086A18682869D85CB
:2007200093879E8594879F8595879889968761E00E94DE04F30185818F3F19F061E00E946A
:20074000DE04F301868161E00E94DE04112319F0F301178603C080E1F3018787C30160E1FE
:2007600041E020E00E940903CF91DF911F910F91EF90CF90AF908F907F906F9008958F9282
:20078000AF92CF92EF920F931F93CF93DF93DC01362F542F722F102FAE2C8C2C13961C9280
:2007A0001E9212978DE691E011969C938E9300D000D0EDB7FEB73196CDB7DEB719821182FE
:2007C00012821382CD0161E0432F2FEF052FE72EC12E0E9478030F900F900F900F90DF9110
:2007E000CF911F910F91EF90CF90AF908F9008951F920F920FB60F9211242F933F938F93CD
:200800009F93AF93BF938091A3019091A401A091A501B091A6013091A7010196A11DB11D4C
:20082000232F2D5F2D3720F02D570196A11DB11D2093A7018093A3019093A401A093A5010C
:20084000B093A60180919F019091A001A091A101B091A2010196A11DB11D80939F0190938B
:20086000A001A093A101B093A201BF91AF919F918F913F912F910F900FBE0F901F90189545
:200880009B01AC017FB7F89480919F019091A001A091A101B091A20166B5A89B05C06F3F52
:2008A00019F00196A11DB11D7FBFBA2FA92F982F8827860F911DA11DB11D62E0880F991F37
:2008C000AA1FBB1F6A95D1F7BC012DC0FFB7F89480919F019091A001A091A101B091A20198
:2008E000E6B5A89B05C0EF3F19F00196A11DB11DFFBFBA2FA92F982F88278E0F911DA11DFD
:20090000B11DE2E0880F991FAA1FBB1FEA95D1F7861B970B885E9340C8F2215030404040F7
:20092000504068517C4F211531054105510571F60895019739F0880F991F880F991F02979F
:200940000197F1F70895789484B5826084BD84B5816084BD85B5826085BD85B5816085BDFC
:20096000EEE6F0E0808181608083E1E8F0E01082808182608083808181608083E0E8F0E060
:20098000808181608083E1EBF0E0808184608083E0EBF0E0808181608083EAE7F0E08081CC
:2009A000846080838081826080838081816080838081806880831092C1000895CF93DF93C5
:2009C000482F50E0CA0186569F4FFC0134914A575F4FFA018491882369F190E0880F991FF6
:2009E000FC01E859FF4FA591B491FC01EE58FF4FC591D491662351F42FB7F8948C91932F85
:200A0000909589238C93888189230BC0623061F42FB7F8948C91932F909589238C93888135
:200A2000832B88832FBF06C09FB7F8948C91832B8C939FBFDF91CF910895482F50E0CA0140
:200A400082559F4FFC012491CA0186569F4FFC0194914A575F4FFA013491332309F440C006
:200A6000222351F1233071F0243028F42130A1F0223011F514C02630B1F02730C1F024306A
:200A8000D9F404C0809180008F7703C0809180008F7D8093800010C084B58F7702C084B531
:200AA0008F7D84BD09C08091B0008F7703C08091B0008F7D8093B000E32FF0E0EE0FFF1F09
:200AC000EE58FF4FA591B4912FB7F894662321F48C919095892302C08C91892B8C932FBF69
:200AE000089508951F920F920FB60F9211242F933F934F938F939F93EF93FF938091C00020
:200B000082FD1DC04091C6002091E8013091E9012F5F3F4F2F7330708091EA019091EB0136
:200B20002817390771F0E091E801F091E901E855FE4F40833093E9012093E80102C08091A7
:200B4000C600FF91EF919F918F914F913F912F910F900FBE0F901F901895E0913C02F09168
:200B60003D02E05CFF4F8191919120813181821B930B8F739070892B11F00E94710508957E
:200B80001F920F920FB60F9211242F933F938F939F93EF93FF9320912C0230912D0280918C
:200BA0002E0290912F022817390731F48091C1008F7D8093C10014C0E0912E02F0912F0236
:200BC000E451FE4F208180912E0290912F0201968F73907090932F0280932E022093C600B6
:200BE000FF91EF919F918F913F912F910F900FBE0F901F901895AF92BF92DF92EF92FF9289
:200C00000F931F93CF93DF93EC017A018B01DD24403081EE580780E0680780E0780711F0CA
:200C2000DD24D39491E0A92EB12CEC89FD89DD2069F0C50108A002C0880F991F0A94E2F7E0
:200C4000808360E079E08DE390E005C0108260E874E88EE190E0A80197010E94E4082150FE
:200C6000304040405040569547953795279580E12030380720F0DD2011F0DD24D6CFE88990
:200C8000F9893083EA89FB89208319A2EE89FF89408121E030E0C9010C8C02C0880F991F86
:200CA0000A94E2F7482B4083EE89FF894081C9010D8C02C0880F991F0A94E2F7482B4083A6
:200CC000EE89FF894081C9010E8C02C0880F991F0A94E2F7482B4083EE89FF8980810F8C97
:200CE00002C0220F331F0A94E2F7209528232083DF91CF911F910F91FF90EF90DF90BF90A9
:200D0000AF900895DC011C96ED91FC911D97E05CFF4F2191319180819181281B390B2F736F
:200D20003070C9010895DC011C96ED91FC911D97E05CFF4F20813181E054F040DF01AE5B34
:200D4000BF4F8D919C9111972817390719F42FEF3FEF07C08D919C91E80FF91F8081282F41
:200D600030E0C9010895DC011C96ED91FC911D97E05CFF4F20813181E054F040DF01AE5B84
:200D8000BF4F8D919C9111972817390719F42FEF3FEF10C08D919C911197E80FF91F208107
:200DA0008D919C91119701968F73907011969C938E9330E0C9010895DC0191968C919197F0
:200DC000882339F05496ED91FC915597808186FFF9CF91961C920895CF93DF93EC01EE856A
:200DE000FF85E05CFF4F20813181E054F0402F5F3F4F2F733070DF01AE5BBF4F8D919C918E
:200E0000119728173907D1F3E05CFF4F80819181E054F040E80FF91F6083EE85FF85E05CC1
:200E2000FF4F31832083EE89FF89208181E090E00F8C02C0880F991F0A94E2F7282B208383
:200E400081E089A3EC89FD8980818064808381E090E0DF91CF910895109233021092320237
:200E600088EE93E0A0E0B0E08093340290933502A0933602B09337028DE791E090933102B4
:200E80008093300288EA91E090933D0280933C028CEE91E090933F0280933E0285EC90E0F4
:200EA000909341028093400284EC90E0909343028093420280EC90E0909345028093440239
:200EC00081EC90E0909347028093460282EC90E0909349028093480286EC90E090934B0273
:200EE00080934A0284E080934C0283E080934D0287E080934E0285E080934F0281E0809302
:200F000050020895CF93DF930E94A3040E94A000CDEAD5E00E94E0012097E1F30E94AD05B5
:200F2000F9CFCF92DF92EF92FF920F931F93CF93DF937C016B018A01C0E0D0E00FC0D60173
:200F40006D916D01D701ED91FC910190F081E02DC7010995C80FD91F015010400115110531
:200F600071F7CE01DF91CF911F910F91FF90EF90DF90CF900895EF92FF920F931F938C01AE
:200F8000DC01ED91FC910190F081E02D6DE009957C01D801ED91FC910190F081E02DC80136
:200FA0006AE009959C012E0D3F1DC9011F910F91FF90EF900895CF93DF93EC0161157105A3
:200FC00019F420E030E00FC0DB010D900020E9F71197A61BB70BE881F9810280F381E02D9B
:200FE000AD0109959C01C901DF91CF9108954F925F927F928F929F92AF92BF92CF92DF9238
:20100000EF92FF920F931F93DF93CF93CDB7DEB7A1970FB6F894DEBF0FBECDBF2C01742E2F
:20102000CB01223008F42AE019A231E2C32ED12CCC0EDD1E822E9924AA24BB24672D752FA9
:20104000A50194010E94E40879018A01C801B701A50194010E94C508472D461B0894C1085D
:20106000D1084A3014F4405D01C0495CF6014083E114F1040105110521F07E2C5F2DC80142
:20108000DDCFC201B6010E94DB07A1960FB6F894DEBF0FBECDBFCF91DF911F910F91FF9079
:2010A000EF90DF90CF90BF90AF909F908F907F905F904F900895CF92DF92EF92FF920F9307
:2010C0001F93CF93DF93EC016A017B012115310541F4E881F9810190F081E02D642F0995F2
:2010E0001FC02A303105D1F477FF17C0E881F9810190F081E02D6DE209958C01442755271C
:20110000BA014C195D096E097F09CE012AE00E94F7079801280F391F04C02AE00E94F7073B
:201120009C01C901DF91CF911F910F91FF90EF90DF90CF900895EF92FF920F931F937C01CC
:201140000E945B088C01C7010E94BB079C01200F311FC9011F910F91FF90EF9008950E944E
:20116000DB070895EF92FF920F931F937C010E94DB078C01C7010E94BB07080F191FC801B8
:201180001F910F91FF90EF900895629FD001739FF001829FE00DF11D649FE00DF11D929F34
:2011A000F00D839FF00D749FF00D659FF00D9927729FB00DE11DF91F639FB00DE11DF91F89
:2011C000BD01CF0111240895A1E21A2EAA1BBB1BFD010DC0AA1FBB1FEE1FFF1FA217B3073D
:2011E000E407F50720F0A21BB30BE40BF50B661F771F881F991F1A9469F7609570958095F7
:2012000090959B01AC01BD01CF01089597FB092E05260ED057FD04D0D7DF0AD0001C38F463
:2012200050954095309521953F4F4F4F5F4F0895F6F790958095709561957F4F8F4F9F4F46
:201240000895EE0FFF1F0590F491E02D0994F894FFCF0052657365742E2E2E2E2E0042612C
:2012600074203D20004C434420696E697420646F6E6500414443312072656164696E672CF1
:20128000200041313D006D4F484D00646574656374204261747465727920766F6C7461670D
:2012A0006520323031352D30332D32332C20004261743D2000206D56000D0000000000B45B
:2012C000029107000040001400540000000000EC0691078206B3069306DC0600FFFFFFFF8A
:2012E000FFFFFFFFFFFFFFFFFFFFFFFFFFFFFFFFFFFFFFFFFFFFFFFFFFFFFFFFFFFFFFFF0E
:20130000696E672C200041313D002000206D4F484D0064657465637420426174746572798F
:2013200020766F6C7461676520323031352D30332D32332C200042617420203D2000206D04
:2013400056000D0000000000F602D3070000400014005400000000002E07D307C406F506DC
:20136000D5061E07FFFFFFFFFFFFFFFFFFFFFFFFFFFFFFFFFFFFFFFFFFFFFFFFFFFFFFFF89
:207800000C94343C0C94513C0C94513C0C94513C0C94513C0C94513C0C94513C0C94513C1D
:207820000C94513C0C94513C0C94513C0C94513C0C94513C0C94513C0C94513C0C94513CE0
:207840000C94513C0C94513C0C94513C0C94513C0C94513C0C94513C0C94513C0C94513CC0
:207860000C94513C0C94513C11241FBECFEFD8E0DEBFCDBF11E0A0E0B1E0ECE9FFE702C07E
:2078800005900D92A230B107D9F712E0A2E0B1E001C01D92AD30B107E1F70E942D3D0C94CC
:2078A000CC3F0C94003C982F9595959595959595905D8F708A307CF0282F295A8091C000B5
:2078C00085FFFCCF9093C6008091C00085FFFCCF2093C6000895282F205DF0CF982F8091CF
:2078E000C00085FFFCCF9093C6000895EF92FF920F931F93EE24FF2487018091C00087FD7B
:2079000017C00894E11CF11C011D111D81E4E81682E4F8068FE0080780E0180770F3E09106
:207920000401F091050109958091C00087FFE9CF8091C6001F910F91FF90EF9008950E949A
:20794000763C982F8091C00085FFFCCF9093C60091362CF490330CF09053892F08959755DB
:20796000892F08951F930E949F3C182F0E949F3C1295107F810F1F9108951F93182F882308
:2079800021F00E94763C1150E1F71F9108951F93182F0E94763C803249F0809103018F5FC1
:2079A000809303018530C1F01F9108958091C00085FFFCCF84E18093C6008091C00085FF4A
:2079C000FCCF1093C6008091C00085FFFCCF80E18093C6001F910895E0910401F0910501CF
:2079E00009951F9108950E94763C803241F0809103018F5F80930301853081F00895809177
:207A0000C00085FFFCCF84E18093C6008091C00085FFFCCF80E18093C6000895E0910401AC
:207A2000F09105010995089540E951E08823A1F02D9A28EE33E0FA013197F1F72150304072
:207A4000D1F72D9828EE33E0FA013197F1F721503040D1F7815061F708953F924F925F92B3
:207A60006F927F928F929F92AF92BF92CF92DF92EF92FF920F931F93CF93DF93000080E1A3
:207A80008093C4001092C50088E18093C10086E08093C2005098589A259A81E00E94143D43
:207AA00024E1F22E9EE1E92E85E9D82E0FE0C02E10E1B12EAA24A394B1E49B2EA6E58A2E44
:207AC000F2E57F2EE0E26E2E79E4572E63E5462E50E5352E0E94763C8033B1F18133B9F187
:207AE000803409F46FC0813409F476C0823409F485C0853409F488C0803531F1823521F128
:207B0000813511F1853509F485C0863509F48DC0843609F496C0843709F403C1853709F46A
:207B200072C1863709F466C0809103018F5F80930301853079F6E0910401F0910501099559
:207B40000E94763C803351F60E94F33CC3CF0E94763C803249F78091C00085FFFCCFF0928C
:207B6000C6008091C00085FFFCCF9092C6008091C00085FFFCCF8092C6008091C00085FFEA
:207B8000FCCF7092C6008091C00085FFFCCF6092C6008091C00085FFFCCF5092C6008091A1
:207BA000C00085FFFCCF4092C6008091C00085FFFCCF3092C6008091C00085FFFCCFB09214
:207BC000C60088CF0E94763C863808F4BDCF0E94763C0E94F33C7ECF0E94763C803809F473
:207BE0009CC0813809F40BC1823809F43CC1883909F48FC080E00E94C73C6CCF84E10E949F
:207C0000BD3C0E94F33C66CF85E00E94BD3C0E94F33C60CF0E94763C809306010E94763CA3
:207C2000809307010E94F33C55CF0E94763C803309F41DC183E00E94BD3C80E00E94C73C4F
:207C400049CF0E94763C809309020E94763C8093080280910C028E7F80930C020E94763C88
:207C6000853409F415C18091080290910902892B89F000E010E00E94763CF801E85FFE4F53
:207C800080830F5F1F4F80910802909109020817190788F30E94763C803209F045CF8091E0
:207CA0000C0280FF01C16091060170910701660F771F7093070160930601A0910802B091E8
:207CC00009021097C9F0E8E0F1E09B01AD014E0F5F1FF999FECF32BD21BD819180BDFA9A6C
:207CE000F99A2F5F3F4FE417F50799F76A0F7B1F70930701609306018091C00085FFFCCF16
:207D0000F092C6008091C00085FFFCCFB092C600E1CE83E00E94C73CDDCE82E00E94C73C8A
:207D2000D9CE0E94763C809309020E94763C809308028091060190910701880F991F909306
:207D40000701809306010E94763C853409F4A6C080910C028E7F80930C020E94763C80323E
:207D600009F0B8CE8091C00085FFFCCFF092C600609108027091090261157105B9F140E05F
:207D800050E080910C02A82FA170B82FB27011C0BB2309F45CC0E0910601F0910701319613
:207DA000F0930701E09306014F5F5F4F46175707E8F4AA2369F3F999FECF209106013091CA
:207DC000070132BD21BDF89A90B58091C00085FFFCCF9093C6002F5F3F4F30930701209354
:207DE00006014F5F5F4F4617570718F38091C00085FDE5CE8091C00085FFF8CFE0CE81E029
:207E00000E94C73C67CE0E94763C803209F08CCE8091C00085FFFCCFF092C6008091C000F6
:207E200085FFFCCFE092C6008091C00085FFFCCFD092C6008091C00085FFFCCFC092C6003B
:207E40008091C00085FFFCCFB092C60043CEE0910601F091070194918091C00085FFFCCFA3
:207E60009093C6009CCF80E10E94C73C33CE0E94763C0E94763C182F0E94763C112309F433
:207E800083C0113009F484C08FE00E94C73C22CE80910C02816080930C02E5CE80910C0226
:207EA000816080930C0259CF809107018823880F880B8A2180930B0280910601909107019E
:207EC000880F991F90930701809306018091080280FF09C0809108029091090201969093AA
:207EE000090280930802F894F999FECF1127E0910601F0910701C8E0D1E0809108029091A1
:207F00000902103091F40091570001700130D9F303E000935700E895009157000170013067
:207F2000D9F301E100935700E895099019900091570001700130D9F301E000935700E8954C
:207F40001395103498F011270091570001700130D9F305E000935700E8950091570001707A
:207F60000130D9F301E100935700E8953296029709F0C7CF103011F00296E5CF11248091F8
:1E7F8000C00085FFB9CEBCCE8EE10E94C73CA2CD85E90E94C73C9ECDF894FFCF8000B3
:00000001FF
