:100000000C9469000C9491000C9491000C94910054
:100010000C9491000C9491000C9491000C9491001C
:100020000C9491000C9491000C9491000C9491000C
:100030000C9491000C9491000C9491000C949100FC
:100040000C947E070C9491000C949C0A0C94CE0A9C
:100050000C9491000C9491000C9491000C949100DC
:100060000C9491000C949100746573745F626364E6
:100070003D20307800000000090003020000040564
:100080000800000000000000000000000102040859
:1000900010204080010204081020010204081020F2
:1000A0004080400404040404040404020202020226
:1000B0000203030303030302020300000000250000
:1000C00028002B0000000000240027002A007202F4
:1000D000FE0A11241FBECFEFD8E0DEBFCDBF11E076
:1000E000A0E0B1E0E0E1F9E102C005900D92AC3F83
:1000F000B107D9F722E0ACEFB1E001C01D92A13CFD
:10010000B207E1F710E0C9E6D0E004C02197FE0194
:100110000E94800CC736D107C9F70E94200C0C94AE
:10012000860C0C940000F02DAC019B0190E080E067
:1001300070E060E0A92F0E94B7009A2FA82F0E94BC
:10014000B7008A2FA72F0E94B7007A2FA62F0E94F0
:10015000B7006A2F8894221F331F441F551F661F44
:10016000771F881F991FF395FF3120F30895BA2F49
:10017000BF70B53010F0B3E0AB0FBA2FB07FB03521
:1001800010F0B0E3AB0F08954FEF43B94FEF5FEFBF
:1001900064E14A95F1F75A95E1F76A95D1F7089528
:1001A0006115710579F0FB0101900020E9F73197A5
:1001B000AF01461B570BDC01ED91FC910280F381EE
:1001C000E02D099490E080E00895CF93DF9340E024
:1001D00060E08FEF91E00E947B0661E471E08FEFB9
:1001E00091E00E948B0B41E060E08FEF91E00E9474
:1001F0007B0662E571E08FEF91E00E948B0BC4E01B
:10020000D0E040E060E08FEF91E00E947B0663E683
:1002100071E08FEF91E00E948B0B64E670E080E06C
:1002200090E00E94ED0740E060E08FEF91E00E94D7
:100230007B0664E771E08FEF91E00E948B0B64E630
:1002400070E080E090E00E94ED0740E060E08FEF1A
:1002500091E00E947B0665E871E08FEF91E00E94DB
:100260008B0B64E670E080E090E00E94ED0740E0D8
:1002700060E08FEF91E00E947B0664E771E08FEF12
:1002800091E00E948B0B64E670E080E090E00E94B9
:10029000ED0740E060E08FEF91E00E947B0663E6AF
:1002A00071E08FEF91E00E948B0B64E670E080E0DC
:1002B00090E00E94ED0740E060E08FEF91E00E9447
:1002C0007B0661E471E08FEF91E00E948B0B64E6A6
:1002D00070E080E090E00E94ED07219709F091CF57
:1002E000DF91CF91089548E251E061E08FEF91E016
:1002F0000E94500748E151E062E08FEF91E00E94D8
:10030000500740E051E063E08FEF91E00E9450071A
:1003100040E351E064E08FEF91E00E94500748E035
:1003200051E065E08FEF91E00E94500740E251E01C
:1003300066E08FEF91E00E94500740E151E067E0F6
:100340008FEF91E00E94500748E351E068E08FEFA3
:1003500091E00C945007CF93C82F40E0682F8FEFA7
:1003600091E00E947B0660E571E08FEF91E00E94D2
:10037000D00060E571E08FEF91E00E94D00060E571
:1003800071E08FEF91E00E94D00041E06C2F8FEF81
:1003900091E00E947B0660E571E08FEF91E00E94A2
:1003A000D00060E571E08FEF91E00E94D00060E541
:1003B00071E08FEF91E0CF910C94D0008EE48093A8
:1003C0007C0062E070E080E090E00E94ED078091A8
:1003D0007A00806480937A0080917A0086FDFCCF59
:1003E0008091780020917900322F282F50E040E052
:1003F00064EB7BE281E190E00E94520CC901089518
:1004000026E040E052EC61E070E084E292E00E947D
:10041000440A66E971E084E292E00E94970BE1E809
:10042000F0E08081887F8160808361E089E00E94C4
:10043000000961E08AE00E94000962E070E089E062
:100440000E947A0868EC70E08AE00E947A0820E056
:1004500042E060E18FEF91E00E9494068FEF91E01F
:100460000E9474060E9473010E94E50083E00E94CE
:1004700059088EE491E6ACEBB0E0809317029093BC
:100480001802A0931902B0931A0268E670E084E2A1
:1004900092E00E94670B60911702709118028091A0
:1004A000190290911A020E949300AB01BC0120E155
:1004B00030E084E292E00E940D0C0E94DE014AE0EE
:1004C00050E0BC0184E292E00E94070C6BEC71E00A
:1004D00084E292E00E94970B68EB7BE080E090E082
:1004E0000C94ED07CF92EF920F9387E0C82E96E021
:1004F000E92E05E024E04AE068E08FEF91E00E94F9
:1005000030070F91EF90CF900895CF93C82F40E020
:10051000682F8FEF91E00E947B0662E08FEF91E001
:100520000E94780768E08FEF91E00E94780761E011
:100530008FEF91E00E94780741E06C2F8FEF91E000
:100540000E947B0662E08FEF91E00E94780766E0F0
:100550008FEF91E00E94780761E08FEF91E0CF91FB
:100560000C947807CF93C82F40E0682F8FEF91E06D
:100570000E947B0660E571E08FEF91E00E94D00061
:1005800060E571E08FEF91E00E94D00061E08FEFB5
:1005900091E00E94780741E06C2F8FEF91E00E947C
:1005A0007B0660E571E08FEF91E00E94D00060E58E
:1005B00071E08FEF91E00E94D00061E08FEF91E059
:1005C000CF910C947807CF93C82F40E0682F8FEF1E
:1005D00091E00E947B0665E08FEF91E00E94780732
:1005E00063E08FEF91E00E94780761E08FEF91E088
:1005F0000E94780741E06C2F8FEF91E00E947B060C
:1006000062E08FEF91E00E94780766E08FEF91E063
:100610000E94780766E08FEF91E0CF910C94780705
:10062000CF93C82F40E0682F8FEF91E00E947B06A8
:1006300065E08FEF91E00E94780763E08FEF91E033
:100640000E94780761E08FEF91E00E94780741E017
:100650006C2F8FEF91E00E947B0667E08FEF91E0B7
:100660000E94780766E08FEF91E00E94780761E0D2
:100670008FEF91E0CF910C947807CF93C82F40E093
:10068000682F8FEF91E00E947B0662E08FEF91E090
:100690000E94780766E08FEF91E00E94780761E0A2
:1006A0008FEF91E00E94780741E06C2F8FEF91E08F
:1006B0000E947B0660E571E08FEF91E00E94D00020
:1006C00060E571E08FEF91E00E94D00061E08FEF74
:1006D00091E0CF910C947807CF93C82F40E0682F1A
:1006E0008FEF91E00E947B0662E08FEF91E00E9425
:1006F000780763E08FEF91E00E94780764E08FEF66
:1007000091E00E94780741E06C2F8FEF91E00E940A
:100710007B0667E08FEF91E00E94780766E08FEF3D
:1007200091E00E94780761E08FEF91E0CF910C9407
:100730007807CF93C82F40E0682F8FEF91E00E9499
:100740007B0662E08FEF91E00E94780763E08FEF15
:1007500091E00E94780764E08FEF91E00E947807B3
:1007600041E06C2F8FEF91E00E947B0662E08FEFFB
:1007700091E00E94780766E08FEF91E00E94780791
:1007800061E08FEF91E0CF910C947807CF93C82F61
:1007900040E0682F8FEF91E00E947B0662E08FEFD0
:1007A00091E00E94780768E08FEF91E00E9478075F
:1007B00061E08FEF91E00E94780741E06C2F8FEFAE
:1007C00091E00E947B0660E571E08FEF91E00E946E
:1007D000D00060E571E08FEF91E00E94D00061E011
:1007E0008FEF91E0CF910C947807CF93C82F40E022
:1007F000682F8FEF91E00E947B0662E08FEF91E01F
:100800000E94780763E08FEF91E00E94780761E033
:100810008FEF91E00E94780741E06C2F8FEF91E01D
:100820000E947B0662E08FEF91E00E94780766E00D
:100830008FEF91E00E94780761E08FEF91E0CF9118
:100840000C947807CF93C82F40E0682F8FEF91E08A
:100850000E947B0662E08FEF91E00E94780763E0E0
:100860008FEF91E00E94780761E08FEF91E00E94A6
:10087000780741E06C2F8FEF91E00E947B0667E0E4
:100880008FEF91E00E94780766E08FEF91E00E9481
:10089000780761E08FEF91E0CF910C947807982F63
:1008A000862F911103C00E9485020895913019F49A
:1008B0000E94B2020895923019F40E94E302089552
:1008C000933019F40E9410030895943019F40E9493
:1008D0003D030895953011F40C946C03963011F497
:1008E0000C949903973011F40C94C603983011F4CA
:1008F0000C94F503993011F40C94220408954F924E
:100900005F926F927F928F929F92AF92BF92CF929F
:10091000DF92EF92FF920F931F93CF93DF936B01C0
:100920007C0110E080E1C81687E2D806E104F104FA
:10093000D0F030E1432E37E2532E612C712CC701E9
:10094000A30192010E94300C4B015C01C701B6016A
:10095000681979098A099B09A30192010E94300C48
:10096000122F75016401D0E088EEC81683E0D80626
:10097000E104F104D8F028EE422E23E0522E612C3F
:10098000712CC701B601A30192010E94300C4B01EA
:100990005C01C701B601681979098A099B09A3019D
:1009A00092010E94300CD22F75016401C0E084E6F0
:1009B000C816D104E104F104D0F094E6492E512C7C
:1009C000612C712CC701B601A30192010E94300C69
:1009D0004B015C01C701B601681979098A099B09B5
:1009E000A30192010E94300CC22F7501640100E046
:1009F0008AE0C816D104E104F104C8F08AE0482E68
:100A0000512C612C712CC701B601A30192010E94E7
:100A1000300C4B015C01C701B601681979098A09DC
:100A20009B09A30192010E94300C022F6401111155
:100A300002C0DD2321F164E08D2F0E944F041123B9
:100A400061F167E08C2F0E944F04112349F16AE0A5
:100A5000802F0E944F046DE08C2DDF91CF911F916C
:100A60000F91FF90EF90DF90CF90BF90AF909F904D
:100A70008F907F906F905F904F900C944F0484E024
:100A80000E94AB01C11111C087E00E94AB010111AE
:100A9000DECF8AE00E94AB01DECFD111D2CFF2CF00
:100AA000D111D5CFCC2399F3D2CF67E08C2F0E9400
:100AB0004F04CDCFCF93DF930E94E50040E060E08C
:100AC0008FEF91E00E947B066FEC71E08FEF91E079
:100AD0000E948B0B8FE00E945C08EC0164ED71E0DA
:100AE00084E292E00E948B0B4AE050E0BE0184E277
:100AF00092E00E94070C41E060E08FEF91E00E94DD
:100B00007B066DE471E08FEF91E00E948B0B41E07A
:100B100060E08FEF91E00E947B064AE050E0BE016A
:100B20008FEF91E00E94070C81E08093FC012091FF
:100B3000FD013091FE01C90196958795281B390B5F
:100B40002C0F3D1F3093FE012093FD013695279514
:100B50002B30310510F42BE030E02F503109A8EF95
:100B6000BAE20E94710C2AE0969587957795679571
:100B70002A95D1F7603127E272078105910518F0B7
:100B800060E070E0CB010E947F0468EB7BE080E0D6
:100B900090E0DF91CF910C94ED0790E080E0089514
:100BA0000895CF93DF93EC0160E08E810E943C09B1
:100BB00081E090E00E94260861E08E810E943C095D
:100BC00081E090E00E94260860E08E810E943C094E
:100BD00084E690E0DF91CF910C942608CF92DF92CB
:100BE000EF92FF920F931F93CF93DF936C017C01E1
:100BF00087E0E80EF11CD0E0C0E0062F10E0B8015D
:100C00000C2E02C0759567950A94E2F76170F701A2
:100C100081917F010E943C092196C430D10579F76A
:100C2000C601DF91CF911F910F91FF90EF90DF9060
:100C3000CF900C94D105CF92DF92EF92FF920F9359
:100C40001F93CF93DF936C017C0187E0E80EF11CCA
:100C5000D0E0C0E0062F10E0B8010C2E02C0759560
:100C600067950A94E2F76170F70181917F010E9414
:100C70003C092196C830D10579F7C601DF91CF91A3
:100C80001F910F91FF90EF90DF90CF900C94D105C2
:100C90001F93CF93DF93EC01162F642F8C810E945A
:100CA0003C098D818F3F19F060E00E943C098F85DF
:100CB000612F84FF06C0CE01DF91CF911F910C946C
:100CC0001B0670E084E0759567958A95E1F7CE0183
:100CD0000E94EE05612FCE01DF91CF911F910C9400
:100CE000EE0540E00C94480661E00E94710680ED3C
:100CF00097E00C942608443008F043E0FC01238977
:100D0000421710F04FEF420FFC01E40FF11D248950
:100D1000620F60680C947106FC016089262F2460C4
:100D2000208B6C600C9471060F931F93CF93DF930D
:100D3000EC01423018F08F8588608F874B8B1C8ABE
:100D400080E48D8B6E8B605C6F8B222329F04130A9
:100D500019F48F8584608F8761E08C810E9400097F
:100D60008D818F3F19F061E00E94000961E08E8162
:100D70000E9400098E0198012C1B3D0B8F8584FD7C
:100D80000DC084E090E00F5F1F4F281739074CF427
:100D900061E0F80186810E940009EDCF88E090E0D3
:100DA000F2CF80E593EC0E94260860E08C810E94DF
:100DB0003C0960E08E810E943C098D818F3F19F0D3
:100DC00060E00E943C096F8564FD33C063E0CE01A2
:100DD0000E94EE0584E991E10E94260863E0CE01BD
:100DE0000E94EE0584E991E10E94260863E0CE01AD
:100DF0000E94EE0586E990E00E94260862E0CE019E
:100E00000E94EE056F856062CE010E94710684E04B
:100E1000888BCE010E948C06CE010E94740682E06F
:100E2000898B66E0CE01DF91CF911F910F910C94D9
:100E300071066062CE010E94710684E991E10E9410
:100E400026086F856062CE010E94710686E990E0F7
:100E50000E9426086F856062CE010E947106D2CF83
:100E6000CF92EF920F93FC01138212828FED91E0EB
:100E70009183808364838FEF8583468327830087F4
:100E8000E186C2861386148615861686178620E0AC
:100E900041E060E1CF010F91EF90CF900C94940668
:100EA000EF92FF920F931F93CF93DF938C017A0100
:100EB000677088E0689FB00111246064C8010E94D7
:100EC0007106E701A8E0EA0EF11C6991D801ED91E5
:100ED000FC910190F081E02DC8010995CE15DF0548
:100EE000A1F7DF91CF911F910F91FF90EF9008959F
:100EF00041E00E94480681E090E008951F920F9221
:100F00000FB60F9211242F933F938F939F93AF931C
:100F1000BF938091200290912102A0912202B09172
:100F2000230230911F0223E0230F2D3768F126E8BA
:100F3000230F0296A11DB11D20931F028093200252
:100F400090932102A0932202B093230280911B026E
:100F500090911C02A0911D02B0911E020196A11D4C
:100F6000B11D80931B0290931C02A0931D02B093AD
:100F70001E02BF91AF919F918F913F912F910F9042
:100F80000FBE0F901F9018950196A11DB11DD4CFD3
:100F90003FB7F89480911B0290911C02A0911D0212
:100FA000B0911E0226B5A89B05C02F3F19F00196EF
:100FB000A11DB11D3FBFBA2FA92F982F8827BC01B3
:100FC000CD01620F711D811D911D42E0660F771FDB
:100FD000881F991F4A95D1F708958F929F92AF92DB
:100FE000BF92CF92DF92EF92FF926B017C010E9441
:100FF000C8074B015C01C114D104E104F104E9F01C
:101000000E942F0C0E94C807681979098A099B0958
:10101000683E73408105910570F321E0C21AD10842
:10102000E108F10888EE880E83E0981EA11CB11C2F
:10103000C114D104E104F10429F7FF90EF90DF908F
:10104000CF90BF90AF909F908F9008958230910580
:1010500038F0880F991F880F991F05970197F1F7AE
:101060000895789484B5836084BD85B5836085BD1B
:10107000EEE6F0E0808181608083E1E8F0E082E0EC
:101080008083808181608083E0E8F0E080818160FE
:101090008083E1EBF0E0808184608083E0EBF0E02E
:1010A00080818160808387E880937A001092C100FC
:1010B0000895809340010895883020F08D3008F421
:1010C0008DE08E502091400190E4299F90011124E1
:1010D0008770822B80937C0080917A00806480935B
:1010E0007A0080917A0086FDFCCF80917800909103
:1010F000790008951F93CF93DF93182FEB0161E0E0
:101100000E940009209739F460E0812FDF91CF9190
:101110001F910C943C09CF3FD10511F461E0F5CF4C
:10112000E12FF0E0EB58FF4FE491E43031F140F46F
:10113000E230B1F0E330E1F0C038D1057CF7E4CF24
:10114000E83029F1E93059F1E530B1F780918000BC
:10115000806280938000D0938B00C0938A0004C08B
:1011600084B5806884BDC7BDDF91CF911F9108957C
:1011700084B5806284BDC8BDF7CF8091800080684F
:1011800080938000D0938900C0938800EDCF809138
:10119000B00080688093B000C093B300E5CF809129
:1011A000B00080628093B000C093B400DDCF843083
:1011B00081F028F48230E9F08330F9F00895883026
:1011C00071F0893091F08530B9F4809180008F7D85
:1011D00003C0809180008F77809380000895809174
:1011E000B0008F778093B00008958091B0008F7D1C
:1011F000F9CF84B58F7784BD089584B58F7DFBCFFB
:10120000CF93DF9390E0FC01E457FF4F24918D557D
:101210009F4FFC0184918823C9F090E0880F991FAB
:10122000FC01EC53FF4FA591B491FC01E654FF4F34
:10123000C591D49161110DC09FB7F8948C91209500
:1012400082238C938881282328839FBFDF91CF91AD
:101250000895623051F49FB7F8943C91822F8095A5
:1012600083238C93E8812E2BEFCF8FB7F894EC91EA
:101270002E2B2C938FBFEACF1F93CF93DF93282F72
:1012800030E0F901EB58FF4F8491F901E457FF4F2B
:10129000D491F901ED55FF4FC491CC23A9F0162F3D
:1012A00081110E94D708EC2FF0E0EE0FFF1FE654EB
:1012B000FF4FA591B4918FB7F894EC91111108C02C
:1012C000D095DE23DC938FBFDF91CF911F910895DE
:1012D000DE2BF8CFFC01918D228D892F90E0805C70
:1012E0009F4F821B91098F7399270895FC01918D5F
:1012F000828D981731F0828DE80FF11D858D90E079
:1013000008958FEF9FEF0895FC01918D828D9817BE
:1013100061F0A28DAE0FBF2FB11D5D968C91928DA5
:101320009F5F9F73928F90E008958FEF9FEF0895D6
:10133000FC01538D448D252F30E0842F90E0821BDB
:10134000930B541710F0CF9608950197089584EFEA
:101350009AE0892B49F080E090E0892B29F00E94E7
:10136000F40A81110C9400000895FC01A48DA80FCB
:10137000B92FB11DA35ABF4F2C91848D90E00196D7
:101380008F739927848FA689B7892C93A089B189F7
:101390008C91837080648C93938D848D981306C098
:1013A0000288F389E02D80818F7D80830895CF931B
:1013B000DF93EC01888D8823B9F0AA89BB89E8897D
:1013C000F9898C9185FD03C0808186FD0DC00FB623
:1013D00007FCF7CF8C9185FFF2CF808185FFEDCFA1
:1013E000CE010E94B509E9CFDF91CF910895EF9228
:1013F000FF920F931F93CF93DF93EC0181E0888FCF
:101400009B8D8C8D98131AC0E889F989808185FF9E
:1014100015C09FB7F894EE89FF896083E889F98940
:1014200080818370806480839FBF81E090E0DF9142
:10143000CF911F910F91FF90EF900895F62E0B8D95
:1014400010E00F5F1F4F0F731127E02E8C8D8E1150
:101450000CC00FB607FCFACFE889F989808185FFB7
:10146000F5CFCE010E94B509F1CFEB8DEC0FFD2F2A
:10147000F11DE35AFF4FF0829FB7F8940B8FEA8972
:10148000FB8980818062CFCFCF92DF92EF92FF9273
:101490001F93CF93DF93EC016A017B01122FE88940
:1014A000F98982E08083C11481EED806E104F10459
:1014B000A1F060E079E08DE390E0A70196010E9441
:1014C000300C2150310941095109569547953795FE
:1014D0002795211580E1380798F0E889F98910826D
:1014E00060E874E88EE190E0A70196010E94300C5C
:1014F000215031094109510956954795379527954E
:10150000EC85FD853083EE85FF852083188EEC8980
:10151000FD891083EA89FB89808188698083EA8953
:10152000FB8980818F7D8083DF91CF911F91FF9018
:10153000EF90DF90CF9008951F920F920FB60F9209
:1015400011242F938F939F93EF93FF93E091340295
:10155000F09135028081E0913A02F0913B0282FDE8
:101560001BC0908180913D028F5F8F7320913E025E
:10157000821741F0E0913D02F0E0EC5DFD4F958F68
:1015800080933D02FF91EF919F918F912F910F904A
:101590000FBE0F901F9018958081F4CF1F920F926D
:1015A0000FB60F9211242F933F934F935F936F9336
:1015B0007F938F939F93AF93BF93EF93FF9384E2B7
:1015C00092E00E94B509FF91EF91BF91AF919F9179
:1015D0008F917F916F915F914F913F912F910F90DC
:1015E0000FBE0F901F90189584E292E00E946A0946
:1015F00021E0892B09F420E0822F0895E4E2F2E053
:101600001382128288EE93E0A0E0B0E08483958399
:10161000A683B7838BEE91E09183808385EC90E085
:101620009587848784EC90E09787868780EC90E0AC
:10163000918B808B81EC90E0938B828B82EC90E09D
:10164000958B848B86EC90E0978B868B118E128E17
:10165000138E148E0895AF92BF92CF92DF92EF92C5
:10166000FF920F931F93CF93DF936C017B018B014C
:10167000040F151FEB015E01AE18BF08C017D1079C
:1016800059F06991D601ED91FC910190F081E02D26
:10169000C6010995892B79F7C501DF91CF911F917B
:1016A0000F91FF90EF90DF90CF90BF90AF90089593
:1016B000FB0101900020E9F73197AF01461B570B62
:1016C000DC01ED91FC910280F381E02D0994EF9211
:1016D000FF920F931F93CF93DF938C017B01D0E098
:1016E000C0E0F701EC0FFD1F6491662361F0D801A3
:1016F000ED91FC910190F081E02DC8010995892BB5
:1017000011F02196EECFCE01DF91CF911F910F9175
:10171000FF90EF9008956115710511F00C94580B2E
:1017200090E080E0089569EF71E00C94580B0F93FE
:101730001F93CF93DF938C01D0E0C0E0611571055A
:1017400019F00E94580BEC01C8010E94930B8C0FFA
:101750009D1FDF91CF911F910F9108958F929F92BE
:10176000AF92BF92EF92FF920F931F93CF93DF93AD
:10177000CDB7DEB7A1970FB6F894DEBF0FBECDBFD1
:101780007C01FA01CB0119A2223008F42AE08E0173
:101790000F5D1F4F822E912CB12CA12CBF01A501F2
:1017A00094010E94300CF901CA016A300CF5605DA9
:1017B000D8016E938D01232B242B252B79F790E0F4
:1017C00080E0109721F0BD01C7010E94580BA1963F
:1017D0000FB6F894DEBF0FBECDBFDF91CF911F9142
:1017E0000F91FF90EF90BF90AF909F908F900895D2
:1017F000695CDECF2115310541F4DC01ED91FC91EE
:101800000190F081E02D642F09940C94AE0B9A01A5
:10181000AB0170E060E00C94FA0B0F931F93CF9331
:10182000DF93EC010E94FA0B8C01CE010E94930B16
:10183000800F911FDF91CF911F910F91089508950F
:101840000E9431080E941F0C0E940002C7EAD9E0E2
:101850000E945A052097E1F30E94A709F9CF089545
:10186000A1E21A2EAA1BBB1BFD010DC0AA1FBB1FA4
:10187000EE1FFF1FA217B307E407F50720F0A21B16
:10188000B30BE40BF50B661F771F881F991F1A9483
:1018900069F760957095809590959B01AC01BD01AD
:1018A000CF010895052E97FB1EF400940E94690C49
:1018B00057FD07D00E94300C07FC03D04EF40C9467
:1018C000690C50954095309521953F4F4F4F5F4F94
:1018D000089590958095709561957F4F8F4F9F4F9C
:1018E0000895A29FB001B39FC001A39F700D811DF9
:1018F0001124911DB29F700D811D1124911D089519
:10190000EE0FFF1F0590F491E02D0994F894FFCF9E
:101910001F1F000000001F1F070F07000000070F18
:10192000000000000C0F0F07070F0F0F0F0F0F071E
:1019300000000000001F1F1F1C1E1E1E1E1E1E1C5E
:101940001C1C00000000181C1F1F1F0000000000CE
:1019500001202020206D696E692D4F686D202020A8
:1019600020005665722E322020205869616F6C610C
:101970006261003E2020206D696E692D4F686D20E8
:1019800020203C003E3E20206D696E692D4F686D21
:1019900020203C3C003E3E3E206D696E692D4F6824
:1019A0006D203C3C3C004D696E692D6F686D2D6D5E
:1019B000657472655F6269675F666F6E745F766596
:1019C0007273696F6E5F323032302D4155472D3062
:1019D000345F7869616F6C61626100206D5600410F
:1019E00031202000414443313D20000000000078B8
:1019F000072B0BCD05D00500000000F7092B0B9835
:0C1A000009D7096A09840976090D0A005B
:00000001FF
